:100000000C9457010C94BA040C9493040C946C0453
:100010000C9445040C947F010C947F010C941E04F5
:100020000C947F010C947F010C94E1040C94530513
:100030000C947F010C947F010C947F010C947F0140
:100040000C947F010C947F010C947F010C947F0130
:100050000C947F010C947F010C947F010C94BC0BD9
:100060000C947F010C947F010C947F010C947F0110
:100070000C947F010C947F010C947F010C947F0100
:100080000C947F010C947F010C947F010C947F01F0
:100090000C947F010C947F010C947F010C947F01E0
:1000A0000C947F010C947F010C947F012B0A2E0A83
:1000B0001D0A210A270A4F0A4F0A4F0A320A360A36
:1000C0003A0A400A440A4F0A4A0A000000000000A7
:1000D00000002A2B280000000000000000000000A3
:1000E000000000000000000000002C9EB4A0A1A2AF
:1000F000A434A6A7A5AE362D3738271E1F202122EF
:1001000023242526B333B62EB7B89F8485868788E7
:10011000898A8B8C8D8E8F909192939495969798D7
:10012000999A9B9C9D2F3130A3AD35040506070895
:10013000090A0B0C0D0E0F101112131415161718B7
:10014000191A1B1C1DAFB1B0B500080B000202024A
:100150000100090400000102020000052400100152
:1001600005240101010424020605240600010705F7
:10017000810310004009040100020A000000070585
:100180000202400000070583024000000403090446
:1001900012010002EF0201404123368000010102FA
:1001A000030141726475696E6F204C4C43004172CB
:1001B0006475696E6F204C656F6E6172646F0000CC
:1001C000000000240027002A002D0030000000005D
:1001D00000250028002B002E003100000000002325
:1001E00000260029002C002F00040404040403044A
:1001F00005020202020403020202020606060606C5
:1002000006040402020204040408020110408040B3
:10021000102040804080080204018040201002012C
:10022000108010204040200000000200090F000054
:10023000030401000C0000000000000000000000AA
:1002400000000000000005010906A1018502050764
:1002500019E029E71500250175019508810295012E
:1002600075088103950675081500257305071900A3
:1002700029738100C005010902A1010901A10085BE
:10028000010509190129031500250195037501814F
:1002900002950175058103050109300931093815F9
:1002A00081257F750895038106C0C0009411112433
:1002B0001FBECFEFDAE0DEBFCDBF11E0A0E0B1E0BE
:1002C000EAE6F4E202C005900D92A238B107D9F730
:1002D00022E0A2E8B1E001C01D92AD36B207E1F71D
:1002E00011E0C7E5D1E004C02197FE010E942D1264
:1002F000C635D107C9F70E94060C0C9433120C9432
:10030000000008954091AF015091B0012091AD01DE
:100310003091AE0142175307B4F49091E800957004
:10032000E1F39091E80092FD19C08093F100809173
:10033000AF019091B00101968F739927892B19F421
:100340008EEF8093E8008091AF019091B00101960B
:100350009093B0018093AF0181E0089580E008950B
:10036000DF92EF92FF920F931F93CF93DF93D82EDC
:10037000F92EE42E062F10E0C8010196880F0E9486
:10038000820183E00E948201CD2DDF2D0C0F1D1F05
:10039000C017D10789F0E7FE03C0FE01849101C0B8
:1003A00088810E948201F82E80E00E9482018F21C4
:1003B00021968111EDCF01C081E0DF91CF911F9196
:1003C0000F91FF90EF90DF900895DF92EF92FF92F0
:1003D0000F931F93CF93DF93D82E8A017B01E40EF6
:1003E000F51EEB01CE15DF0571F0D7FE03C0FE014F
:1003F000849101C088810E94820121968111F2CFEF
:100400008FEF9FEF01C0C801DF91CF911F910F9136
:10041000FF90EF90DF9008952FB7F8948770809346
:10042000E9009091E800892F807295FF04C09091B7
:10043000F20080E4891B2FBF0895615030F02091B5
:10044000F100FC0120830196F8CF289884E6809380
:10045000E9010895CF92DF92EF92FF920F931F93DD
:10046000CF93DF936C017A018B01C0E0D0E0CE1511
:10047000DF0581F0D8016D918D01D601ED91FC91E0
:100480000190F081E02DC6010995892B11F021968C
:10049000EECF7E01C701DF91CF911F910F91FF90A9
:1004A000EF90DF90CF9008958091A50181110DC04C
:1004B00082E08093A10184E08093A2011092A401C4
:1004C0001092A30181E08093A50181EA91E0089553
:1004D0000F931F93CF93DF931F92CDB7DEB782E0C8
:1004E000898342E450E06AE471E080E80E94E5011B
:1004F0000E945402DC0112960D911C911397011574
:10050000110589F0D801ED91FC910280F381E02D75
:10051000BE016F5F7F4FC801099597FD04C0F801C8
:1005200000851185ECCF89810F90DF91CF911F91CC
:100530000F910895CF93DF931F92CDB7DEB76983F4
:10054000DC01ED91FC910280F381E02D41E050E06F
:10055000BE016F5F7F4F09950F90DF91CF91089596
:1005600083E08093E9008091F200882319F08AE308
:100570008093E800089583E00E940C0290E00895C3
:10058000FC018485958597FD0BC09FB7F89482E0A8
:100590008093E9008091F2009FBF90E0019608955A
:1005A0009FB7F89482E08093E9008091F2009FBFAA
:1005B00090E00895CF92DF92EF92FF920F931F93F6
:1005C000CF93DF936C01EB017B01E40EF51E00E09D
:1005D00010E0CE15DF0581F069916D30D1F3D601C1
:1005E000ED91FC910190F081E02DC6010995892BD8
:1005F00019F00F5F1F4FEDCFC801DF91CF911F9111
:100600000F91FF90EF90DF90CF900895089580E0D4
:1006100090E00895DC01FB0112968C91129790E016
:100620002481358182179307D1F491818081813AA9
:1006300031F481E0913091F0933089F411C081322E
:1006400071F49B3021F482811F968C9305C09A30FF
:1006500031F4828150968C9381E00895089580E072
:100660000895DC01FB0188E4808389E4818384E4CC
:1006700082831D969C911D979F709F5B93831D960F
:100680008D919C911E9724E0969587952A95E1F788
:100690008F708F5B848385E00895EF92FF920F93B4
:1006A0001F93CF93DF93FB012081213851F52381E4
:1006B000223239F5DC0112962C9130E044815581CB
:1006C00042175307F1F4EC010B851C85E12CF12C4A
:1006D0000115110591F0F801448155816281738102
:1006E00080E80E94E5018F3FFFEF9F0769F0E80E69
:1006F000F91ED8010D911C91EBCF81E08F87C701C6
:1007000005C080E090E002C08FEF9FEFDF91CF91B6
:100710001F910F91FF90EF900895CF93DF93CDB786
:10072000DEB769970FB6F894DEBF0FBECDBFFC01F0
:10073000DB018C918F5F8C93BE016F5F7F4F89E1EE
:10074000DB011D928A95E9F729E0298384E08A83F9
:1007500091E09D8383E08E832A8721E22B879C870B
:100760009D879F8722E2288B27E02B8B25E02C8B0F
:100770008E8B20E430E0388F2F8B998F82818B8392
:1007800095858685998B8A8B838180688D8B49E1DD
:1007900050E080E00E94E50169960FB6F894DEBF54
:1007A0000FBECDBFDF91CF910895FC0182818F5B99
:1007B000FB01808381E008950F931F93CF93DF9314
:1007C0001F92CDB7DEB78C01FC018485958597FF1C
:1007D0000EC0CE0101960E94C00A019719F48981CA
:1007E00090E002C08FEF9FEFF80195878487F801B2
:1007F000848595850F90DF91CF911F910F9108957A
:10080000CF93DF931F92CDB7DEB7FC01848595852A
:1008100097FD05C02FEF3FEF358724870BC0CE0132
:1008200001960E94C00A019719F4898190E002C0E4
:100830008FEF9FEF0F90DF91CF9108951F920F924E
:100840000FB60F9211242F933F934F935F936F93A3
:100850007F938F939F93AF93BF93EF93FF93E09119
:100860001B01F0911C010995FF91EF91BF91AF9190
:100870009F918F917F916F915F914F913F912F91B8
:100880000F900FBE0F901F9018951F920F920FB6EA
:100890000F9211242F933F934F935F936F937F9306
:1008A0008F939F93AF93BF93EF93FF93E0911901C1
:1008B000F0911A010995FF91EF91BF91AF919F912E
:1008C0008F917F916F915F914F913F912F910F90F9
:1008D0000FBE0F901F9018951F920F920FB60F9298
:1008E00011242F933F934F935F936F937F938F9335
:1008F0009F93AF93BF93EF93FF93E0911701F09114
:1009000018010995FF91EF91BF91AF919F918F9140
:100910007F916F915F914F913F912F910F900FBEFB
:100920000F901F9018951F920F920FB60F921124DF
:100930002F933F934F935F936F937F938F939F93E7
:10094000AF93BF93EF93FF93E0911501F0911601E0
:100950000995FF91EF91BF91AF919F918F917F91F9
:100960006F915F914F913F912F910F900FBE0F901C
:100970001F9018951F920F920FB60F9211242F936C
:100980003F934F935F936F937F938F939F93AF9317
:10099000BF93EF93FF93E0911301F0911401099538
:1009A000FF91EF91BF91AF919F918F917F916F9147
:1009B0005F914F913F912F910F900FBE0F901F901D
:1009C00018951F920F920FB60F9211248F939F9339
:1009D0008091E1009091E100937F9093E10083FF8B
:1009E0000FC01092E90091E09093EB001092EC00A0
:1009F00092E39093ED001092EA0198E09093F0005A
:100A000082FF20C093E09093E9009091F200992337
:100A100019F09AE39093E8009091B201992339F08C
:100A20009091B20191509093B201992389F19091E4
:100A3000E901992339F09091E90191509093E901EE
:100A4000992341F184FF10C08091E2008E7E816085
:100A50008093E2008091E1008F7E8093E10080919D
:100A6000B3018E7E806111C080FF16C08091E200CC
:100A70008E7E80618093E2008091E1008E7E809383
:100A8000E1008091B3018E7E81608093B30104C048
:100A90005D9ACDCF289AD6CF9F918F910F900FBEA0
:100AA0000F901F9018951F920F920FB60F9211245E
:100AB000CF92DF92EF92FF920F931F932F933F936A
:100AC0004F935F936F937F938F939F93AF93BF9356
:100AD000EF93FF93CF93DF93CDB7DEB76C97DEBF75
:100AE000CDBF1092E9008091E80083FFFBC168E070
:100AF000CE0145960E941D0282EF8093E8008D8909
:100B000087FF05C09091E80090FFFCCF03C09EEFE7
:100B10009093E800982F907609F0C6C09E894F897F
:100B2000588D2F89F88C91110CC0803829F4809150
:100B3000B4018093F10002C01092F1001092F10014
:100B400045C1913051F4811141C14130510509F045
:100B50003DC18091B4018D7F0BC0933061F4811150
:100B600035C14130510509F031C18091B401826035
:100B70008093B4012BC1953049F48091E80080FF47
:100B8000FCCF822F80688093E30020C1963009F06B
:100B90005EC00B8D1C8D22E01092E9001092B00116
:100BA0001092AF01F21232C01092AE011092AD015C
:100BB0000E94680299E0BE016F5F7F4FDB01E92F61
:100BC0001D92EA95E9F79983FA8291E09E8390EA73
:100BD00098879AEF99872091AF013091B001275FF4
:100BE0003F4F3C832B838D831092E9001092B0011C
:100BF0001092AF011093AE010093AD0149E050E0B7
:100C000080E00E94E5010E946802E0C01093AE01FE
:100C10000093AD010E945402DC0112960D911C91CB
:100C200013970115110509F4BBC0D801ED91FC9192
:100C30000480F581E02DBE016B5E7F4FC8010995F0
:100C4000009709F0C7C0F80100851185EACF9730F9
:100C500009F445C1983021F481E08093F100B6C0D9
:100C6000993009F0B3C0837009F039C1E1E0F1E0D7
:100C700081E031E096E32081211109C08EE7809365
:100C8000EA001092EA008F898093EA019FC0809366
:100C9000E9003093EB0021912093EC009093ED005C
:100CA0008F5F873041F7EACF8B8D9C8D1092E900E2
:100CB0001092B0011092AF019093AE018093AD01FC
:100CC000898D811153C08E899D89913A49F4813271
:100CD00009F005C147E050E06BE071E080E0BBC087
:100CE000913209F0FCC0833269F48F89988DA0E0BD
:100CF000B0E08093070190930801A0930901B0939D
:100D00000A0164C0803269F48091E80082FFFCCF60
:100D100067E08BE091E00E941D028BEF8093E8007A
:100D200055C0823209F052C08F8980931201EEEFD4
:100D3000FFE7859194918B3F9C4D19F0E0E0F8E03E
:100D400002C0EEEFFAE080910B0190910C01A091AE
:100D50000D01B0910E01803B9440A105B10509F051
:100D60009EC08091120180FF79C099C00E945402F8
:100D7000FC01028113810115110509F4B0C0D801ED
:100D8000ED91FC910190F081E02DBE016B5E7F4FF3
:100D9000C801099581111AC0F80100851185EBCFB2
:100DA000F1E0FF1609F44EC0F3E0FF1298C08F89FE
:100DB000882309F44AC0823089F440E860E18EEA71
:100DC00091E00E94B001882309F489C08EEF8093DE
:100DD000E80088C018161906CCF381C0813029F4C8
:100DE00040E86BE082EA91E0ECCF833009F077C015
:100DF0000E945402DC011296ED90FC9013978E0134
:100E00000F5F1F4F6801E114F10479F0D701ED91F4
:100E1000FC910680F781E02DB801C7010995080F04
:100E2000111DF701E084F184EECFD8011C92F60188
:100E300001900020E9F73197BF016C197D0940E06E
:100E4000C601BFCF60E971E002C06CE871E0FB0150
:100E5000449150E080E80E94E501B8CFEE3F2AE0DF
:100E6000F20751F0808191818737A7E79A0721F037
:100E70009093FF0A8093FE0A87E797E79183808328
:100E8000809160008093B1019BE088E10FB6F894F7
:100E9000A895809360000FBE9093600097CF8081EB
:100EA00091818737974709F091CFA895809160008D
:100EB0008861809360008091B10180936000EE3F73
:100EC000BAE0FB0739F08091FE0A9091FF0A918306
:100ED00080837CCF1092FF0A1092FE0A77CF81E2C6
:100EE0008093EB006C960FB6F894DEBF0FBECDBFBB
:100EF000DF91CF91FF91EF91BF91AF919F918F9132
:100F00007F916F915F914F913F912F911F910F9121
:100F1000FF90EF90DF90CF900F900FBE0F901F903B
:100F200018957F928F929F92AF92BF92CF92DF924D
:100F3000EF92FF920F931F93CF93DF93C82E8B01F5
:100F40007A018091EA01811103C08FEF9FEF74C095
:100F50008091B30180FF05C08091E00082608093A2
:100F6000E000CE2DDF2DD12C8AEFB82E8C2D87708E
:100F7000982E8C2D8072882E8C2D8074782E9AE37A
:100F8000A92E209719F4DD2009F451C08C2D0E9460
:100F90000C0281110AC0BA94BB20B9F261E070E082
:100FA00080E090E00E94820BECCF282F30E0C21747
:100FB000D3070CF48C2F9FB7F8949092E9002091FE
:100FC000E80025FF32C0282F30E0C21BD30B882059
:100FD00029F08150A0F01092F100FBCFF801C7FE7C
:100FE0000AC0815050F044914093F1003196F9CFFE
:100FF00041914093F1008150D8F7020F131FDD207B
:1010000019F0A092E8000AC08091E80085FD08C0B0
:10101000A092E800DD24D394209739F0D12C05C0AC
:10102000209719F47110A092E8009FBFAACF5D9895
:1010300084E68093B201C701DF91CF911F910F9198
:10104000FF90EF90DF90CF90BF90AF909F908F90E8
:101050007F900895CF93DF93EC0180911201882354
:1010600031F083E00E9491071816190634F081E0F0
:1010700090E09B838A8380E090E0DF91CF91089598
:101080008091990181116AC081E080938C018093E5
:101090008D0122E931E030938F0120938E0110926F
:1010A00091011092900121E231E030938901209367
:1010B000880110929401109293011092960110925F
:1010C0009501809397018093980181EC8093920120
:1010D0000E945402FC01218180918C0190E0820FDA
:1010E000911D0897C4F5A281B381109729F488E86F
:1010F00091E0938382830EC018968D919C911997ED
:10110000009711F0DC01F8CF88E891E019969C93E4
:101110008E931897808180938A01818180938B01BF
:10112000908180918D01890F808380E090918C0166
:10113000891788F4A0918E01B0918F01A80FB11D7D
:101140009C91A181B0E0A050BF4F9C9391819F5F83
:1011500091838F5FEBCF81E08093990188E891E0E4
:101160000895CF93DF93DC01683810F068582DC0E4
:10117000E62FF0E067FF11C0E058F10981E090E050
:1011800001C0880FEA95EAF714969C911497892B71
:1011900014968C93149760E018C0E653FF4F649147
:1011A000611109C081E090E013969C938E93129791
:1011B00080E090E046C067FF08C014968C911497B9
:1011C000826014968C9314976F7716968C9116976D
:1011D000681751F117968C911797681729F118968F
:1011E0008C911897681701F119968C9119976817C7
:1011F000D9F01A968C911A976817B1F01B968C91BA
:101200001B97681789F0FD01369680E090E02191E8
:10121000211105C0FD01E80FF91F668305C0019685
:1012200086309105A1F7BECFED010E944008AE01C6
:101230004C5F5F4F28E030E062E00E94750A81E079
:1012400090E0DF91CF910895CF93DF93DC01683870
:1012500010F0685825C0E62FF0E067FF12C0E05894
:10126000F10981E090E001C0880FEA95EAF78095E6
:1012700014969C911497892314968C93149760E08C
:101280000FC0E653FF4F6491662321F167FF08C04A
:1012900014968C9114978D7F14968C9314976F7776
:1012A000FD0186E0662321F09681691301C0168254
:1012B000815031968111F6CFED010E944008AE01B8
:1012C0004C5F5F4F28E030E062E00E94750A81E0E9
:1012D00090E002C080E090E0DF91CF910895EF921E
:1012E000FF921F93CF93DF93EC01162F0E94B1085A
:1012F0007C01612FCE010E942409C7019927DF914B
:10130000CF911F91FF90EF900895CF92DF92EF92CF
:10131000FF921F93CF93DF9380E00E94EE0AEC01CF
:1013200081E00E94EE0A7C0165E070E080E090E0E0
:101330000E94820B80E00E94EE0A6C0181E00E9414
:10134000EE0ACC15DD0509F052C0E816F90609F0E1
:101350004EC08091860190918701C817D90749F046
:10136000D0938701C093860111E0CE15DF0509F403
:1013700010E082E00E94EE0A892BB9F4111102C03C
:101380008FEF01C081E0809385010E94400824E036
:1013900030E042E851E061E0DF91CF911F91FF9092
:1013A000EF90DF90CF900C94750A112359F068EDFF
:1013B0008BE392E00E94B10883EC90E00197F1F793
:1013C00068ED0AC067ED8BE392E00E94B10883EC00
:1013D00090E00197F1F767ED8BE392E0DF91CF9119
:1013E0001F91FF90EF90DF90CF900C942409DF9134
:1013F000CF911F91FF90EF90DF90CF90089561E023
:1014000089E00E94170B61E08AE00E94170B61E0FF
:1014100080E10E94170B61E08EE00E94170B61E0F3
:101420008FE00C94170B90E0FC013197EF30F10541
:10143000B0F5EA5AFF4F0C942D12809180008F77FF
:1014400003C0809180008F7D8093800008958091FB
:101450008000877FF9CF84B58F7702C084B58F7DF8
:1014600084BD0895809190008F7707C0809190008F
:101470008F7D03C080919000877F809390000895B6
:101480008091C0008F7703C08091C0008F7D8093D2
:10149000C00008958091C200877F8093C2000895A4
:1014A0003FB7F89480914C0290914D02A0914E026A
:1014B000B0914F0226B5A89B05C02F3F19F00196A9
:1014C000A11DB11D3FBFBA2FA92F982F8827820FCA
:1014D000911DA11DB11DBC01CD0142E0660F771F1A
:1014E000881F991F4A95D1F70895AF92BF92CF9266
:1014F000DF92EF92FF920F931F93CF93DF931F9290
:10150000CDB7DEB77C0169836A01590141E050E043
:10151000BE016F5F7F4FFC0183810E9491078C01A8
:1015200097FD0BC0F7018381A501B60180640E947D
:10153000910797FD02C0800F911F0F90DF91CF910F
:101540001F910F91FF90EF90DF90CF90BF90AF90E1
:101550000895682F8BE392E00C946F09009769F06F
:10156000FC0101900020E9F73197AF01481B590BAE
:10157000BC018BE392E00C94DA0280E090E00895E5
:101580002091EA01211103C08FEF9FEF08955FB70B
:10159000F89422E02093E9002091F20030E0121646
:1015A000130614F421E030E0422FFC0184E64150A0
:1015B00038F028988093E9019091F1009193F7CF4A
:1015C0002115310521F08091F200882319F05FBFC9
:1015D000C90108958BE68093E800F9CFCF93DF939C
:1015E000282F30E0F901E95DFD4F8491F901E85FB2
:1015F000FD4FD491F901E751FE4FC491CC2391F0F6
:1016000081110E94130AEC2FF0E0EE0FFF1FE5524C
:10161000FE4FA591B491EC91ED2381E090E021F48F
:1016200080E002C080E090E0DF91CF9108951F93A9
:10163000CF93DF93282F30E0F901E95DFD4F8491CE
:10164000F901E85FFD4FD491F901E751FE4FC491D4
:10165000CC23C1F0162F81110E94130AEC2FF0E069
:10166000EE0FFF1FE353FE4FA591B4919FB7F8947F
:10167000111104C08C91D095D82302C0EC91DE2BBF
:10168000DC939FBFDF91CF911F910895CF93DF939C
:1016900090E0FC01E85FFD4F2491FC01E751FE4F13
:1016A0008491882361F190E0880F991FFC01E15437
:1016B000FE4FC591D491FC01E353FE4FA591B49127
:1016C000611109C09FB7F89488812095822388838F
:1016D000EC912E230BC0623061F49FB7F89488819F
:1016E000322F309583238883EC912E2B2C939FBF30
:1016F00006C08FB7F894E8812E2B28838FBFDF9127
:10170000CF9108958F929F92AF92BF92CF92DF9226
:10171000EF92FF926B017C010E94500A4B015C0129
:10172000C114D104E104F104F1F00E94500ADC017B
:10173000CB0188199909AA09BB09883E9340A105E4
:10174000B10570F321E0C21AD108E108F10888EE72
:10175000880E83E0981EA11CB11CC114D104E104C1
:10176000F10419F7DDCFFF90EF90DF90CF90BF909D
:10177000AF909F908F9008951F920F920FB60F9287
:1017800011242F933F938F939F93AF93BF93809197
:10179000480290914902A0914A02B0914B023091C7
:1017A000470223E0230F2D3720F40196A11DB11D20
:1017B00005C026E8230F0296A11DB11D2093470204
:1017C0008093480290934902A0934A02B0934B023F
:1017D00080914C0290914D02A0914E02B0914F0227
:1017E0000196A11DB11D80934C0290934D02A093D0
:1017F0004E02B0934F02BF91AF919F918F913F9155
:101800002F910F900FBE0F901F901895789484B56C
:10181000826084BD84B5816084BD85B5826085BDEC
:1018200085B5816085BD80916E00816080936E007A
:10183000109281008091810082608093810080916C
:10184000810081608093810080918000816080931D
:10185000800080919100826080939100809191003E
:1018600081608093910080919000816080939000CE
:101870008091C10084608093C1008091C10082602A
:101880008093C1008091C10081608093C1008091EC
:10189000C30081608093C3008091C0008260809308
:1018A000C0008091C20081608093C20080917A0064
:1018B000846080937A0080917A00826080937A00BD
:1018C00080917A00816080937A0080917A008068AC
:1018D00080937A001092EA011092B4011092B30141
:1018E0008091D70081608093D70080EA8093D800F0
:1018F00089B5806189BD89B5826089BD09B400FE62
:10190000FDCF61E070E080E090E00E94820B80916A
:10191000D8008F7C80618093D8008091E000807F28
:101920008093E0008091E1008E7E8093E1008DE065
:101930008093E200559A209A61E089E00E94460B6C
:1019400061E08AE00E94460B61E080E10E94460B64
:1019500061E08EE00E94460B61E08FE00E94460B42
:1019600062E088E00E94460B62E087E00E94460B3E
:1019700062E086E00E94460B62E085E00E94460B32
:1019800062E084E00E94460B0E94FF0962E082E16F
:101990000E94460B62E083E10E94460B60E082E019
:1019A0000E94460B61E082E00E94170B60E080E03D
:1019B0000E94460B60E081E00E94460B85E899E0BA
:1019C0009093180180931701809169008F7C80614A
:1019D00080936900EA9A8FEF9FEF9093F8018093CC
:1019E000F701CFE5D0E080ED882E81E0982E00E071
:1019F00010E066246394712C23E0E22EF12C32E097
:101A0000C32ED12C82E10E94EE0A5C0183E10E9488
:101A1000EE0AAB2841F0892B09F47CC41092B60180
:101A20001092B50107C0892B09F479C4F092B60170
:101A3000E092B50160E089E00E94170B88E00E9407
:101A4000EE0A21E0892B09F420E02093B70187E01A
:101A50000E94EE0A21E0892B09F420E02093B801CE
:101A600086E00E94EE0A21E0892B09F420E0209311
:101A7000B90185E00E94EE0A21E0892B09F420E0FB
:101A80002093BA0184E00E94EE0A21E0892B09F438
:101A900020E02093BB010E94FF0960E08AE00E94E1
:101AA000170B88E00E94EE0A21E0892B09F420E060
:101AB0002093BC0187E00E94EE0A21E0892B09F403
:101AC00020E02093BD0186E00E94EE0A21E0892BF0
:101AD00009F420E02093BE0185E00E94EE0A21E097
:101AE000892B09F420E02093BF0184E00E94EE0AD4
:101AF00021E0892B09F420E02093C0010E94FF0916
:101B000060E080E10E94170B88E00E94EE0A21E06D
:101B1000892B09F420E02093C10187E00E94EE0A9E
:101B200021E0892B09F420E02093C20186E00E9485
:101B3000EE0A21E0892B09F420E02093C30185E01F
:101B40000E94EE0A21E0892B09F420E02093C401D1
:101B500084E00E94EE0A21E0892B09F420E0209322
:101B6000C5010E94FF0960E08EE00E94170B88E02B
:101B70000E94EE0A21E0892B09F420E02093C6019F
:101B800087E00E94EE0A21E0892B09F420E02093EF
:101B9000C70186E00E94EE0A21E0892B09F420E0CB
:101BA0002093C80185E00E94EE0A21E0892B09F408
:101BB00020E02093C90184E00E94EE0A21E0892BF5
:101BC00009F420E02093CA010E94FF0960E08FE041
:101BD0000E94170B88E00E94EE0A21E0892B09F48D
:101BE00020E02093CB0187E00E94EE0A21E0892BC0
:101BF00009F420E02093CC0186E00E94EE0A21E067
:101C0000892B09F420E02093CD0185E00E94EE0AA3
:101C100021E0892B09F420E02093CE0184E00E948A
:101C2000EE0A21E0892B09F420E02093CF010E94E5
:101C3000FF098091B701882301F18091D0018111C2
:101C40001CC08091B5019091B6018130910571F071
:101C50002CF4892B91F487E491E00DC0823091053A
:101C600041F0039751F48DE491E005C089E491E0DF
:101C700002C08BE491E00E94AE0A8091B8018823F3
:101C800001F18091D10181111CC08091B501909129
:101C9000B6018130910571F02CF4892B91F487E421
:101CA00091E00DC08230910541F0039751F48DE42D
:101CB00091E005C089E491E002C08BE491E00E94CC
:101CC000AE0A8091B901882301F18091D20181117E
:101CD0001CC08091B5019091B6018130910571F0E1
:101CE0002CF4892B91F487E491E00DC082309105AA
:101CF00041F0039751F48DE491E005C089E491E04F
:101D000002C08BE491E00E94AE0A8091BA01882360
:101D100001F18091D30181111CC08091B501909196
:101D2000B6018130910571F02CF4892B91F487E490
:101D300091E00DC08230910541F0039751F48DE49C
:101D400091E005C089E491E002C08BE491E00E943B
:101D5000AE0A8091BB018823B9F08091D401811132
:101D600013C064E88BE392E00E94B108CE010197B2
:101D7000F1F783E60E94A90ACE010197F1F764E822
:101D80008BE392E00E9424098091BC018823B9F082
:101D90008091D501811113C064E88BE392E00E9429
:101DA000B108CE010197F1F786E70E94A90ACE019A
:101DB0000197F1F764E88BE392E00E942409809197
:101DC000BD01882301F18091D60181111CC0809151
:101DD000B5019091B6018130910571F02CF4892BF9
:101DE00091F487E491E00DC08230910541F00397B2
:101DF00051F48DE491E005C089E491E002C08BE4E8
:101E000091E00E94AE0A8091BE01882301F1809189
:101E1000D70181111CC08091B5019091B60181302C
:101E2000910571F02CF4892B91F487E491E00DC0B9
:101E30008230910541F0039751F48DE491E005C0A3
:101E400089E491E002C08BE491E00E94AE0A8091A7
:101E5000BF01882301F18091D80181111CC08091BC
:101E6000B5019091B6018130910571F02CF4892B68
:101E700091F487E491E00DC08230910541F0039721
:101E800051F48DE491E005C089E491E002C08BE457
:101E900091E00E94AE0A8091C001882301F18091F7
:101EA000D90181111CC08091B5019091B60181309A
:101EB000910571F02CF4892B91F487E491E00DC029
:101EC0008230910541F0039751F48DE491E005C013
:101ED00089E491E002C08BE491E00E94AE0A809117
:101EE000C1018823B9F08091DA01811113C064E83F
:101EF0008BE392E00E94B108CE010197F1F788E7E9
:101F00000E94A90ACE010197F1F764E88BE392E001
:101F10000E9424098091C201882301F18091DB0194
:101F200081111CC08091B5019091B601813091055D
:101F300071F02CF4892B91F487E491E00DC082308C
:101F4000910541F0039751F48DE491E005C089E4D7
:101F500091E002C08BE491E00E94AE0A8091C3013F
:101F6000882301F18091DC0181111CC08091B501B1
:101F70009091B6018130910571F02CF4892B91F488
:101F800087E491E00DC08230910541F0039751F450
:101F90008DE491E005C089E491E002C08BE491E01A
:101FA0000E94AE0A8091C401882301F18091DD0175
:101FB00081111CC08091B5019091B60181309105CD
:101FC00071F02CF4892B91F487E491E00DC08230FC
:101FD000910541F0039751F48DE491E005C089E447
:101FE00091E002C08BE491E00E94AE0A8091C501AD
:101FF000882301F18091DE0181111CC08091B5011F
:102000009091B6018130910571F02CF4892B91F4F7
:1020100087E491E00DC08230910541F0039751F4BF
:102020008DE491E005C089E491E002C08BE491E089
:102030000E94AE0A8091C6018823B9F08091DF0129
:10204000811113C064E88BE392E00E94B108CE01D5
:102050000197F1F783E70E94A90ACE010197F1F7F2
:1020600064E88BE392E00E9424098091C7018823F1
:1020700009F18091E00181111DC064E88BE392E0D9
:102080000E94B10866E88BE392E00E94B108CE019D
:102090000197F1F783E70E94A90ACE010197F1F7B2
:1020A00064E88BE392E00E94240966E88BE392E007
:1020B0000E9424098091C801882301F18091E101E7
:1020C00081111CC08091B5019091B60181309105BC
:1020D00071F02CF4892B91F487E491E00DC08230EB
:1020E000910541F0039751F48DE491E005C089E436
:1020F00091E002C08BE491E00E94AE0A8091C90198
:10210000882301F18091E20181111CC08091B50109
:102110009091B6018130910571F02CF4892B91F4E6
:1021200087E491E00DC08230910541F0039751F4AE
:102130008DE491E005C089E491E002C08BE491E078
:102140000E94AE0A8091CA01882301F18091E301C7
:1021500081111CC08091B5019091B601813091052B
:1021600071F02CF4892B91F487E491E00DC082305A
:10217000910541F0039751F48DE491E005C089E4A5
:1021800091E002C08BE491E00E94AE0A8091CB0105
:10219000882301F18091E40181111CC08091B50177
:1021A0009091B6018130910571F02CF4892B91F456
:1021B00087E491E00DC08230910541F0039751F41E
:1021C0008DE491E005C089E491E002C08BE491E0E8
:1021D0000E94AE0A8091CC01882301F18091E50133
:1021E00081111CC08091B5019091B601813091059B
:1021F00071F02CF4892B91F48FE491E00DC08230C2
:10220000910541F0039751F481E791E005C089E51C
:1022100091E002C082E691E00E94AE0A8091CD0179
:10222000882301F18091E60181111CC08091B501E4
:102230009091B6018130910571F02CF4892B91F4C5
:1022400087E491E00DC08230910541F0039751F48D
:102250008DE491E005C089E491E002C08BE491E057
:102260000E94AE0A8091CE01882301F18091E7019E
:1022700081111CC08091B5019091B601813091050A
:1022800071F02CF4892B91F487E491E00DC0823039
:10229000910541F0039751F48DE491E005C089E484
:1022A00091E002C08BE491E00E94AE0A8091CF01E0
:1022B000882301F18091E80181111CC08091B50152
:1022C0009091B6018130910571F02CF4892B91F435
:1022D00087E491E00DC08230910541F0039751F4FD
:1022E0008DE491E005C089E491E002C08BE491E0C7
:1022F0000E94AE0AE7EBF1E0A0EDB1E081918D9391
:102300008E169F06D9F70115110509F47BCB0E94A3
:10231000000078CBD092B601C092B5018BCB709201
:10232000B6016092B50186CB1092EE011092ED01DC
:1023300088EE93E0A0E0B0E08093EF019093F0018D
:10234000A093F101B093F2018DE291E09093EC0142
:102350008093EB018FEF9FEF9093F8018093F7014B
:1023600010923E0210923D028FE391E090933C0266
:1023700080933B0280915602811113C0109251024A
:102380001092500286E492E090935302809352029E
:102390008FE290E0909355028093540281E0809305
:1023A00056020E944008FC01A385B485109729F4C9
:1023B00080E592E0948783870BC08D919C91119763
:1023C000009711F0DC01F9CF80E592E08D939C93AA
:1023D000258536858091540290915502820F931F76
:1023E0009687858710926C0280916402811113C0D8
:1023F00010925F0210925E0285E792E09093610274
:102400008093600286E390E090936302809362027F
:1024100081E0809364020E944008FC01A385B4859A
:10242000109729F48EE592E0948783870BC08D91F5
:102430009C911197009711F0DC01F9CF8EE592E0A5
:102440008D939C93258536858091620290916302DD
:10245000820F931F968785870895EE0FFF1F0590C3
:0A246000F491E02D0994F894FFCFE9
:10246A0000C18081000000FFFFFFFF00E1000000C3
:10247A0000000081018101810181018101000000C8
:10248A00000A038D034D033103000000009A022A5B
:10249A0008BB02B002C0020004DC03000000006FA7
:1024AA0009DA020703060361006200630064005050
:1024BA00686F746F73686F70005072656D696572CA
:1024CA006500446176696E63685265736F6C766500
:1024DA0000456173795061696E74546F6F6C534132
:0224EA004900A7
:00000001FF
